{
    "contractName": "CatNFT",
    "abi": [
        {
            "inputs": [],
            "stateMutability": "nonpayable",
            "type": "constructor"
        },
        {
            "anonymous": false,
            "inputs": [
                {
                    "indexed": false,
                    "internalType": "uint256",
                    "name": "catId",
                    "type": "uint256"
                }
            ],
            "name": "CatBurned",
            "type": "event"
        },
        {
            "anonymous": false,
            "inputs": [
                {
                    "indexed": false,
                    "internalType": "uint256",
                    "name": "catId",
                    "type": "uint256"
                },
                {
                    "indexed": false,
                    "internalType": "string",
                    "name": "imageUrl",
                    "type": "string"
                },
                {
                    "indexed": false,
                    "internalType": "string",
                    "name": "name",
                    "type": "string"
                },
                {
                    "indexed": false,
                    "internalType": "uint8",
                    "name": "quality",
                    "type": "uint8"
                },
                {
                    "indexed": false,
                    "internalType": "address",
                    "name": "owner",
                    "type": "address"
                },
                {
                    "indexed": false,
                    "internalType": "uint256",
                    "name": "creationTime",
                    "type": "uint256"
                }
            ],
            "name": "CatCreated",
            "type": "event"
        },
        {
            "anonymous": false,
            "inputs": [
                {
                    "indexed": false,
                    "internalType": "uint256",
                    "name": "catId",
                    "type": "uint256"
                }
            ],
            "name": "CatDelisted",
            "type": "event"
        },
        {
            "anonymous": false,
            "inputs": [
                {
                    "indexed": false,
                    "internalType": "uint256",
                    "name": "catId",
                    "type": "uint256"
                },
                {
                    "indexed": false,
                    "internalType": "uint256",
                    "name": "price",
                    "type": "uint256"
                }
            ],
            "name": "CatListedForSale",
            "type": "event"
        },
        {
            "anonymous": false,
            "inputs": [
                {
                    "indexed": false,
                    "internalType": "uint256",
                    "name": "catId",
                    "type": "uint256"
                },
                {
                    "indexed": false,
                    "internalType": "uint256",
                    "name": "newPrice",
                    "type": "uint256"
                }
            ],
            "name": "CatPriceUpdated",
            "type": "event"
        },
        {
            "anonymous": false,
            "inputs": [
                {
                    "indexed": false,
                    "internalType": "uint256",
                    "name": "catId",
                    "type": "uint256"
                },
                {
                    "indexed": false,
                    "internalType": "address",
                    "name": "buyer",
                    "type": "address"
                },
                {
                    "indexed": false,
                    "internalType": "uint256",
                    "name": "price",
                    "type": "uint256"
                }
            ],
            "name": "CatSold",
            "type": "event"
        },
        {
            "inputs": [],
            "name": "MINT_PRICE",
            "outputs": [
                {
                    "internalType": "uint256",
                    "name": "",
                    "type": "uint256"
                }
            ],
            "stateMutability": "view",
            "type": "function",
            "constant": true
        },
        {
            "inputs": [
                {
                    "internalType": "uint256",
                    "name": "",
                    "type": "uint256"
                }
            ],
            "name": "catToOwner",
            "outputs": [
                {
                    "internalType": "address",
                    "name": "",
                    "type": "address"
                }
            ],
            "stateMutability": "view",
            "type": "function",
            "constant": true
        },
        {
            "inputs": [
                {
                    "internalType": "uint256",
                    "name": "",
                    "type": "uint256"
                }
            ],
            "name": "cats",
            "outputs": [
                {
                    "internalType": "string",
                    "name": "imageUrl",
                    "type": "string"
                },
                {
                    "internalType": "string",
                    "name": "name",
                    "type": "string"
                },
                {
                    "internalType": "uint8",
                    "name": "quality",
                    "type": "uint8"
                },
                {
                    "internalType": "uint256",
                    "name": "price",
                    "type": "uint256"
                },
                {
                    "internalType": "bool",
                    "name": "isForSale",
                    "type": "bool"
                },
                {
                    "internalType": "address",
                    "name": "owner",
                    "type": "address"
                },
                {
                    "internalType": "uint256",
                    "name": "creationTime",
                    "type": "uint256"
                }
            ],
            "stateMutability": "view",
            "type": "function",
            "constant": true
        },
        {
            "inputs": [],
            "name": "owner",
            "outputs": [
                {
                    "internalType": "address payable",
                    "name": "",
                    "type": "address"
                }
            ],
            "stateMutability": "view",
            "type": "function",
            "constant": true
        },
        {
            "inputs": [
                {
                    "internalType": "address",
                    "name": "",
                    "type": "address"
                },
                {
                    "internalType": "uint256",
                    "name": "",
                    "type": "uint256"
                }
            ],
            "name": "ownerHasCat",
            "outputs": [
                {
                    "internalType": "bool",
                    "name": "",
                    "type": "bool"
                }
            ],
            "stateMutability": "view",
            "type": "function",
            "constant": true
        },
        {
            "inputs": [
                {
                    "internalType": "string",
                    "name": "_imageUrl",
                    "type": "string"
                },
                {
                    "internalType": "string",
                    "name": "_name",
                    "type": "string"
                }
            ],
            "name": "createCat",
            "outputs": [],
            "stateMutability": "nonpayable",
            "type": "function"
        },
        {
            "inputs": [],
            "name": "withdrawFunds",
            "outputs": [],
            "stateMutability": "nonpayable",
            "type": "function"
        },
        {
            "inputs": [
                {
                    "internalType": "uint256",
                    "name": "_catId",
                    "type": "uint256"
                },
                {
                    "internalType": "uint256",
                    "name": "_newPrice",
                    "type": "uint256"
                }
            ],
            "name": "updatePrice",
            "outputs": [],
            "stateMutability": "nonpayable",
            "type": "function"
        },
        {
            "inputs": [
                {
                    "internalType": "uint256",
                    "name": "_catId",
                    "type": "uint256"
                },
                {
                    "internalType": "uint256",
                    "name": "_price",
                    "type": "uint256"
                }
            ],
            "name": "listForSale",
            "outputs": [],
            "stateMutability": "nonpayable",
            "type": "function"
        },
        {
            "inputs": [
                {
                    "internalType": "uint256",
                    "name": "_catId",
                    "type": "uint256"
                }
            ],
            "name": "delist",
            "outputs": [],
            "stateMutability": "nonpayable",
            "type": "function"
        },
        {
            "inputs": [
                {
                    "internalType": "uint256",
                    "name": "_catId",
                    "type": "uint256"
                }
            ],
            "name": "buyCat",
            "outputs": [],
            "stateMutability": "payable",
            "type": "function",
            "payable": true
        },
        {
            "inputs": [
                {
                    "internalType": "address",
                    "name": "_user",
                    "type": "address"
                }
            ],
            "name": "getMarketplaceCats",
            "outputs": [
                {
                    "internalType": "uint256[]",
                    "name": "",
                    "type": "uint256[]"
                }
            ],
            "stateMutability": "view",
            "type": "function",
            "constant": true
        },
        {
            "inputs": [
                {
                    "internalType": "address",
                    "name": "_owner",
                    "type": "address"
                }
            ],
            "name": "getCatsByOwner",
            "outputs": [
                {
                    "internalType": "uint256[]",
                    "name": "",
                    "type": "uint256[]"
                }
            ],
            "stateMutability": "view",
            "type": "function",
            "constant": true
        },
        {
            "inputs": [
                {
                    "internalType": "uint256",
                    "name": "_catId",
                    "type": "uint256"
                }
            ],
            "name": "burnCat",
            "outputs": [],
            "stateMutability": "nonpayable",
            "type": "function"
        }
    ],
    "bytecode": "0x608060405234801561001057600080fd5b5033600360006101000a81548173ffffffffffffffffffffffffffffffffffffffff021916908373ffffffffffffffffffffffffffffffffffffffff160217905550612595806100616000396000f3fe6080604052600436106100dd5760003560e01c8063a8f2aa541161007f578063c6df962d11610059578063c6df962d146102aa578063d72503ba146102ed578063dcd397f314610309578063e80d7fec14610346576100dd565b8063a8f2aa5414610219578063c002d23d14610242578063c1bab3421461026d576100dd565b806361cd194e116100bb57806361cd194e1461017357806382367b2d1461019c5780638da5cb5b146101c5578063964bc33f146101f0576100dd565b806324600fc3146100e25780633aab8dc8146100f957806348444b9414610136575b600080fd5b3480156100ee57600080fd5b506100f761036f565b005b34801561010557600080fd5b50610120600480360381019061011b9190611967565b61046a565b60405161012d91906119d5565b60405180910390f35b34801561014257600080fd5b5061015d60048036038101906101589190611a1c565b61049d565b60405161016a9190611b07565b60405180910390f35b34801561017f57600080fd5b5061019a60048036038101906101959190611967565b6107ed565b005b3480156101a857600080fd5b506101c360048036038101906101be9190611b29565b610a0b565b005b3480156101d157600080fd5b506101da610b13565b6040516101e79190611b8a565b60405180910390f35b3480156101fc57600080fd5b5061021760048036038101906102129190611967565b610b39565b005b34801561022557600080fd5b50610240600480360381019061023b9190611ceb565b610c51565b005b34801561024e57600080fd5b50610257610f45565b6040516102649190611d72565b60405180910390f35b34801561027957600080fd5b50610294600480360381019061028f9190611a1c565b610f50565b6040516102a19190611b07565b60405180910390f35b3480156102b657600080fd5b506102d160048036038101906102cc9190611967565b6110f8565b6040516102e49796959493929190611e4c565b60405180910390f35b61030760048036038101906103029190611967565b611294565b005b34801561031557600080fd5b50610330600480360381019061032b9190611ec9565b6116c5565b60405161033d9190611f09565b60405180910390f35b34801561035257600080fd5b5061036d60048036038101906103689190611b29565b6116f4565b005b600360009054906101000a900473ffffffffffffffffffffffffffffffffffffffff1673ffffffffffffffffffffffffffffffffffffffff163373ffffffffffffffffffffffffffffffffffffffff16146103ff576040517f08c379a00000000000000000000000000000000000000000000000000000000081526004016103f690611f70565b60405180910390fd5b600360009054906101000a900473ffffffffffffffffffffffffffffffffffffffff1673ffffffffffffffffffffffffffffffffffffffff166108fc479081150290604051600060405180830381858888f19350505050158015610467573d6000803e3d6000fd5b50565b60016020528060005260406000206000915054906101000a900473ffffffffffffffffffffffffffffffffffffffff1681565b60606000808054905090506000805b828110156105fd57600073ffffffffffffffffffffffffffffffffffffffff168573ffffffffffffffffffffffffffffffffffffffff1614801561051f5750600081815481106104ff576104fe611f90565b5b906000526020600020906006020160040160009054906101000a900460ff165b1561053757818061052f90611fee565b9250506105ea565b6000818154811061054b5761054a611f90565b5b906000526020600020906006020160040160009054906101000a900460ff1680156105d557508473ffffffffffffffffffffffffffffffffffffffff166001600083815260200190815260200160002060009054906101000a900473ffffffffffffffffffffffffffffffffffffffff1673ffffffffffffffffffffffffffffffffffffffff1614155b156105e95781806105e590611fee565b9250505b5b80806105f590611fee565b9150506104ac565b5060008167ffffffffffffffff81111561061a57610619611bc0565b5b6040519080825280602002602001820160405280156106485781602001602082028036833780820191505090505b5090506000805b848110156107e057600073ffffffffffffffffffffffffffffffffffffffff168773ffffffffffffffffffffffffffffffffffffffff161480156106c25750600081815481106106a2576106a1611f90565b5b906000526020600020906006020160040160009054906101000a900460ff165b156106fa57808383815181106106db576106da611f90565b5b60200260200101818152505081806106f290611fee565b9250506107cd565b6000818154811061070e5761070d611f90565b5b906000526020600020906006020160040160009054906101000a900460ff16801561079857508673ffffffffffffffffffffffffffffffffffffffff166001600083815260200190815260200160002060009054906101000a900473ffffffffffffffffffffffffffffffffffffffff1673ffffffffffffffffffffffffffffffffffffffff1614155b156107cc57808383815181106107b1576107b0611f90565b5b60200260200101818152505081806107c890611fee565b9250505b5b80806107d890611fee565b91505061064f565b5081945050505050919050565b3373ffffffffffffffffffffffffffffffffffffffff166001600083815260200190815260200160002060009054906101000a900473ffffffffffffffffffffffffffffffffffffffff1673ffffffffffffffffffffffffffffffffffffffff161461088e576040517f08c379a000000000000000000000000000000000000000000000000000000000815260040161088590612082565b60405180910390fd5b6000600260003373ffffffffffffffffffffffffffffffffffffffff1673ffffffffffffffffffffffffffffffffffffffff168152602001908152602001600020600083815260200190815260200160002060006101000a81548160ff0219169083151502179055506001600082815260200190815260200160002060006101000a81549073ffffffffffffffffffffffffffffffffffffffff02191690556000818154811061094157610940611f90565b5b906000526020600020906006020160008082016000610960919061183a565b600182016000610970919061183a565b6002820160006101000a81549060ff021916905560038201600090556004820160006101000a81549060ff02191690556004820160016101000a81549073ffffffffffffffffffffffffffffffffffffffff0219169055600582016000905550507ff3bd11d0ae4bfb152706a9e6b67395121b2be21b6e484efb902e66576bdf71d381604051610a009190611d72565b60405180910390a150565b3373ffffffffffffffffffffffffffffffffffffffff166001600084815260200190815260200160002060009054906101000a900473ffffffffffffffffffffffffffffffffffffffff1673ffffffffffffffffffffffffffffffffffffffff1614610aac576040517f08c379a0000000000000000000000000000000000000000000000000000000008152600401610aa390612114565b60405180910390fd5b8060008381548110610ac157610ac0611f90565b5b9060005260206000209060060201600301819055507fa7ea7f57c5eafcec89eec0211778ca9f66205de223b4f0d8ff5aaab427a1e72a8282604051610b07929190612134565b60405180910390a15050565b600360009054906101000a900473ffffffffffffffffffffffffffffffffffffffff1681565b3373ffffffffffffffffffffffffffffffffffffffff166001600083815260200190815260200160002060009054906101000a900473ffffffffffffffffffffffffffffffffffffffff1673ffffffffffffffffffffffffffffffffffffffff1614610bda576040517f08c379a0000000000000000000000000000000000000000000000000000000008152600401610bd190612114565b60405180910390fd5b6000808281548110610bef57610bee611f90565b5b906000526020600020906006020160040160006101000a81548160ff0219169083151502179055507f8803065e2a4d7d74525af34c061c56eddf24f7b32ac1f9b7de88c78dbc252f6881604051610c469190611d72565b60405180910390a150565b600060644233600080549050604051602001610c6f939291906121c6565b6040516020818303038152906040528051906020012060001c610c929190612232565b905060006023821015610ca85760019050610ce6565b603c821015610cba5760029050610ce5565b6050821015610ccc5760039050610ce4565b605d821015610cde5760049050610ce3565b600590505b5b5b5b60008080549050905060006040518060e001604052808781526020018681526020018460ff168152602001600081526020016000151581526020013373ffffffffffffffffffffffffffffffffffffffff1681526020014281525090806001815401808255809150506001900390600052602060002090600602016000909190919091506000820151816000019080519060200190610d8692919061187a565b506020820151816001019080519060200190610da392919061187a565b5060408201518160020160006101000a81548160ff021916908360ff1602179055506060820151816003015560808201518160040160006101000a81548160ff02191690831515021790555060a08201518160040160016101000a81548173ffffffffffffffffffffffffffffffffffffffff021916908373ffffffffffffffffffffffffffffffffffffffff16021790555060c082015181600501555050336001600083815260200190815260200160002060006101000a81548173ffffffffffffffffffffffffffffffffffffffff021916908373ffffffffffffffffffffffffffffffffffffffff1602179055506001600260003373ffffffffffffffffffffffffffffffffffffffff1673ffffffffffffffffffffffffffffffffffffffff168152602001908152602001600020600083815260200190815260200160002060006101000a81548160ff0219169083151502179055507f899c210768c32d75093c3c4a91876022dbd62e165d1c820a1feabb96dd140107818686853342604051610f3696959493929190612263565b60405180910390a15050505050565b6608e1bc9bf0400081565b60606000808054905090506000805b82811015610fec57600260008673ffffffffffffffffffffffffffffffffffffffff1673ffffffffffffffffffffffffffffffffffffffff168152602001908152602001600020600082815260200190815260200160002060009054906101000a900460ff1615610fd9578180610fd590611fee565b9250505b8080610fe490611fee565b915050610f5f565b5060008167ffffffffffffffff81111561100957611008611bc0565b5b6040519080825280602002602001820160405280156110375781602001602082028036833780820191505090505b5090506000805b848110156110eb57600260008873ffffffffffffffffffffffffffffffffffffffff1673ffffffffffffffffffffffffffffffffffffffff168152602001908152602001600020600082815260200190815260200160002060009054906101000a900460ff16156110d857808383815181106110bd576110bc611f90565b5b60200260200101818152505081806110d490611fee565b9250505b80806110e390611fee565b91505061103e565b5081945050505050919050565b6000818154811061110857600080fd5b906000526020600020906006020160009150905080600001805461112b90612301565b80601f016020809104026020016040519081016040528092919081815260200182805461115790612301565b80156111a45780601f10611179576101008083540402835291602001916111a4565b820191906000526020600020905b81548152906001019060200180831161118757829003601f168201915b5050505050908060010180546111b990612301565b80601f01602080910402602001604051908101604052809291908181526020018280546111e590612301565b80156112325780601f1061120757610100808354040283529160200191611232565b820191906000526020600020905b81548152906001019060200180831161121557829003601f168201915b5050505050908060020160009054906101000a900460ff16908060030154908060040160009054906101000a900460ff16908060040160019054906101000a900473ffffffffffffffffffffffffffffffffffffffff16908060050154905087565b600081815481106112a8576112a7611f90565b5b906000526020600020906006020160040160009054906101000a900460ff16611306576040517f08c379a00000000000000000000000000000000000000000000000000000000081526004016112fd9061237e565b60405180910390fd5b6000818154811061131a57611319611f90565b5b90600052602060002090600602016003015434101561136e576040517f08c379a0000000000000000000000000000000000000000000000000000000008152600401611365906123ea565b60405180910390fd5b60006001600083815260200190815260200160002060009054906101000a900473ffffffffffffffffffffffffffffffffffffffff1690503373ffffffffffffffffffffffffffffffffffffffff168173ffffffffffffffffffffffffffffffffffffffff1603611414576040517f08c379a000000000000000000000000000000000000000000000000000000000815260040161140b90612456565b60405180910390fd5b336001600084815260200190815260200160002060006101000a81548173ffffffffffffffffffffffffffffffffffffffff021916908373ffffffffffffffffffffffffffffffffffffffff160217905550600080838154811061147b5761147a611f90565b5b906000526020600020906006020160040160006101000a81548160ff02191690831515021790555033600083815481106114b8576114b7611f90565b5b906000526020600020906006020160040160016101000a81548173ffffffffffffffffffffffffffffffffffffffff021916908373ffffffffffffffffffffffffffffffffffffffff1602179055506000600260008373ffffffffffffffffffffffffffffffffffffffff1673ffffffffffffffffffffffffffffffffffffffff168152602001908152602001600020600084815260200190815260200160002060006101000a81548160ff0219169083151502179055506001600260003373ffffffffffffffffffffffffffffffffffffffff1673ffffffffffffffffffffffffffffffffffffffff168152602001908152602001600020600084815260200190815260200160002060006101000a81548160ff02191690831515021790555060008173ffffffffffffffffffffffffffffffffffffffff16346040516115ff906124a7565b60006040518083038185875af1925050503d806000811461163c576040519150601f19603f3d011682016040523d82523d6000602084013e611641565b606091505b5050905080611685576040517f08c379a000000000000000000000000000000000000000000000000000000000815260040161167c90612508565b60405180910390fd5b7f24b8d548cd229648e4ca8febdd99cc0acbff8bb2a46cd31049a9a6e61a46dd728333346040516116b893929190612528565b60405180910390a1505050565b60026020528160005260406000206020528060005260406000206000915091509054906101000a900460ff1681565b3373ffffffffffffffffffffffffffffffffffffffff166001600084815260200190815260200160002060009054906101000a900473ffffffffffffffffffffffffffffffffffffffff1673ffffffffffffffffffffffffffffffffffffffff1614611795576040517f08c379a000000000000000000000000000000000000000000000000000000000815260040161178c90612114565b60405180910390fd5b6001600083815481106117ab576117aa611f90565b5b906000526020600020906006020160040160006101000a81548160ff02191690831515021790555080600083815481106117e8576117e7611f90565b5b9060005260206000209060060201600301819055507fe44f7089cc22f65881086ffcca2cb2c1b8382f225b382bd3e8ab12ce0561b508828260405161182e929190612134565b60405180910390a15050565b50805461184690612301565b6000825580601f106118585750611877565b601f0160209004906000526020600020908101906118769190611900565b5b50565b82805461188690612301565b90600052602060002090601f0160209004810192826118a857600085556118ef565b82601f106118c157805160ff19168380011785556118ef565b828001600101855582156118ef579182015b828111156118ee5782518255916020019190600101906118d3565b5b5090506118fc9190611900565b5090565b5b80821115611919576000816000905550600101611901565b5090565b6000604051905090565b600080fd5b600080fd5b6000819050919050565b61194481611931565b811461194f57600080fd5b50565b6000813590506119618161193b565b92915050565b60006020828403121561197d5761197c611927565b5b600061198b84828501611952565b91505092915050565b600073ffffffffffffffffffffffffffffffffffffffff82169050919050565b60006119bf82611994565b9050919050565b6119cf816119b4565b82525050565b60006020820190506119ea60008301846119c6565b92915050565b6119f9816119b4565b8114611a0457600080fd5b50565b600081359050611a16816119f0565b92915050565b600060208284031215611a3257611a31611927565b5b6000611a4084828501611a07565b91505092915050565b600081519050919050565b600082825260208201905092915050565b6000819050602082019050919050565b611a7e81611931565b82525050565b6000611a908383611a75565b60208301905092915050565b6000602082019050919050565b6000611ab482611a49565b611abe8185611a54565b9350611ac983611a65565b8060005b83811015611afa578151611ae18882611a84565b9750611aec83611a9c565b925050600181019050611acd565b5085935050505092915050565b60006020820190508181036000830152611b218184611aa9565b905092915050565b60008060408385031215611b4057611b3f611927565b5b6000611b4e85828601611952565b9250506020611b5f85828601611952565b9150509250929050565b6000611b7482611994565b9050919050565b611b8481611b69565b82525050565b6000602082019050611b9f6000830184611b7b565b92915050565b600080fd5b600080fd5b6000601f19601f8301169050919050565b7f4e487b7100000000000000000000000000000000000000000000000000000000600052604160045260246000fd5b611bf882611baf565b810181811067ffffffffffffffff82111715611c1757611c16611bc0565b5b80604052505050565b6000611c2a61191d565b9050611c368282611bef565b919050565b600067ffffffffffffffff821115611c5657611c55611bc0565b5b611c5f82611baf565b9050602081019050919050565b82818337600083830152505050565b6000611c8e611c8984611c3b565b611c20565b905082815260208101848484011115611caa57611ca9611baa565b5b611cb5848285611c6c565b509392505050565b600082601f830112611cd257611cd1611ba5565b5b8135611ce2848260208601611c7b565b91505092915050565b60008060408385031215611d0257611d01611927565b5b600083013567ffffffffffffffff811115611d2057611d1f61192c565b5b611d2c85828601611cbd565b925050602083013567ffffffffffffffff811115611d4d57611d4c61192c565b5b611d5985828601611cbd565b9150509250929050565b611d6c81611931565b82525050565b6000602082019050611d876000830184611d63565b92915050565b600081519050919050565b600082825260208201905092915050565b60005b83811015611dc7578082015181840152602081019050611dac565b83811115611dd6576000848401525b50505050565b6000611de782611d8d565b611df18185611d98565b9350611e01818560208601611da9565b611e0a81611baf565b840191505092915050565b600060ff82169050919050565b611e2b81611e15565b82525050565b60008115159050919050565b611e4681611e31565b82525050565b600060e0820190508181036000830152611e66818a611ddc565b90508181036020830152611e7a8189611ddc565b9050611e896040830188611e22565b611e966060830187611d63565b611ea36080830186611e3d565b611eb060a08301856119c6565b611ebd60c0830184611d63565b98975050505050505050565b60008060408385031215611ee057611edf611927565b5b6000611eee85828601611a07565b9250506020611eff85828601611952565b9150509250929050565b6000602082019050611f1e6000830184611e3d565b92915050565b7f4f6e6c79206f776e65722063616e2077697468647261772066756e6473000000600082015250565b6000611f5a601d83611d98565b9150611f6582611f24565b602082019050919050565b60006020820190508181036000830152611f8981611f4d565b9050919050565b7f4e487b7100000000000000000000000000000000000000000000000000000000600052603260045260246000fd5b7f4e487b7100000000000000000000000000000000000000000000000000000000600052601160045260246000fd5b6000611ff982611931565b91507fffffffffffffffffffffffffffffffffffffffffffffffffffffffffffffffff820361202b5761202a611fbf565b5b600182019050919050565b7f596f7520617265206e6f7420746865206f776e65720000000000000000000000600082015250565b600061206c601583611d98565b915061207782612036565b602082019050919050565b6000602082019050818103600083015261209b8161205f565b9050919050565b7f596f7520617265206e6f7420746865206f776e6572206f66207468697320636160008201527f7400000000000000000000000000000000000000000000000000000000000000602082015250565b60006120fe602183611d98565b9150612109826120a2565b604082019050919050565b6000602082019050818103600083015261212d816120f1565b9050919050565b60006040820190506121496000830185611d63565b6121566020830184611d63565b9392505050565b6000819050919050565b61217861217382611931565b61215d565b82525050565b60008160601b9050919050565b60006121968261217e565b9050919050565b60006121a88261218b565b9050919050565b6121c06121bb826119b4565b61219d565b82525050565b60006121d28286612167565b6020820191506121e282856121af565b6014820191506121f28284612167565b602082019150819050949350505050565b7f4e487b7100000000000000000000000000000000000000000000000000000000600052601260045260246000fd5b600061223d82611931565b915061224883611931565b92508261225857612257612203565b5b828206905092915050565b600060c0820190506122786000830189611d63565b818103602083015261228a8188611ddc565b9050818103604083015261229e8187611ddc565b90506122ad6060830186611e22565b6122ba60808301856119c6565b6122c760a0830184611d63565b979650505050505050565b7f4e487b7100000000000000000000000000000000000000000000000000000000600052602260045260246000fd5b6000600282049050600182168061231957607f821691505b60208210810361232c5761232b6122d2565b5b50919050565b7f5468697320636174206973206e6f7420666f722073616c650000000000000000600082015250565b6000612368601883611d98565b915061237382612332565b602082019050919050565b600060208201905081810360008301526123978161235b565b9050919050565b7f496e73756666696369656e742066756e64730000000000000000000000000000600082015250565b60006123d4601283611d98565b91506123df8261239e565b602082019050919050565b60006020820190508181036000830152612403816123c7565b9050919050565b7f596f7520616c7265616479206f776e2074686973206361740000000000000000600082015250565b6000612440601883611d98565b915061244b8261240a565b602082019050919050565b6000602082019050818103600083015261246f81612433565b9050919050565b600081905092915050565b50565b6000612491600083612476565b915061249c82612481565b600082019050919050565b60006124b282612484565b9150819050919050565b7f5472616e73666572206661696c65640000000000000000000000000000000000600082015250565b60006124f2600f83611d98565b91506124fd826124bc565b602082019050919050565b60006020820190508181036000830152612521816124e5565b9050919050565b600060608201905061253d6000830186611d63565b61254a60208301856119c6565b6125576040830184611d63565b94935050505056fea2646970667358221220c6f174ef36a64ce9fccf4723764d889bb783920709ebb26e95759182be74ed1064736f6c634300080d0033",
    "immutableReferences": {},
    "source": "// SPDX-License-Identifier: MIT\r\npragma solidity ^0.8.13;\r\n\r\ncontract CatNFT {\r\n    struct Cat {\r\n        string imageUrl;\r\n        string name;\r\n        uint8 quality;\r\n        uint256 price;\r\n        bool isForSale;\r\n        address owner;\r\n        uint256 creationTime;\r\n    }\r\n\r\n    Cat[] public cats;\r\n    mapping(uint256 => address) public catToOwner;\r\n    mapping(address => mapping(uint256 => bool)) public ownerHasCat;\r\n\r\n    address payable public owner;\r\n    uint256 public constant MINT_PRICE = 0.0025 ether;\r\n\r\n    event CatCreated(\r\n        uint256 catId,\r\n        string imageUrl,\r\n        string name,\r\n        uint8 quality,\r\n        address owner,\r\n        uint256 creationTime\r\n    );\r\n    event CatPriceUpdated(uint256 catId, uint256 newPrice);\r\n    event CatListedForSale(uint256 catId, uint256 price);\r\n    event CatDelisted(uint256 catId);\r\n    event CatSold(uint256 catId, address buyer, uint256 price);\r\n    event CatBurned(uint256 catId);\r\n\r\n    constructor() {\r\n        owner = payable(msg.sender);\r\n    }\r\n\r\n    function createCat(string memory _imageUrl, string memory _name) public {\r\n        uint256 randomValue = uint256(\r\n            keccak256(\r\n                abi.encodePacked(block.timestamp, msg.sender, cats.length)\r\n            )\r\n        ) % 100;\r\n\r\n        uint8 _quality;\r\n        if (randomValue < 35) {\r\n            _quality = 1;\r\n        } else if (randomValue < 60) {\r\n            _quality = 2;\r\n        } else if (randomValue < 80) {\r\n            _quality = 3;\r\n        } else if (randomValue < 93) {\r\n            _quality = 4;\r\n        } else {\r\n            _quality = 5;\r\n        }\r\n\r\n        uint256 catId = cats.length;\r\n        cats.push(\r\n            Cat({\r\n                imageUrl: _imageUrl,\r\n                name: _name,\r\n                quality: _quality,\r\n                price: 0,\r\n                isForSale: false,\r\n                owner: msg.sender,\r\n                creationTime: block.timestamp\r\n            })\r\n        );\r\n\r\n        catToOwner[catId] = msg.sender;\r\n        ownerHasCat[msg.sender][catId] = true;\r\n\r\n        emit CatCreated(\r\n            catId,\r\n            _imageUrl,\r\n            _name,\r\n            _quality,\r\n            msg.sender,\r\n            block.timestamp\r\n        );\r\n    }\r\n\r\n    function withdrawFunds() public {\r\n        require(msg.sender == owner, \"Only owner can withdraw funds\");\r\n        payable(owner).transfer(address(this).balance);\r\n    }\r\n\r\n    function updatePrice(uint256 _catId, uint256 _newPrice) public {\r\n        require(\r\n            catToOwner[_catId] == msg.sender,\r\n            \"You are not the owner of this cat\"\r\n        );\r\n        cats[_catId].price = _newPrice;\r\n        emit CatPriceUpdated(_catId, _newPrice);\r\n    }\r\n\r\n    function listForSale(uint256 _catId, uint256 _price) public {\r\n        require(\r\n            catToOwner[_catId] == msg.sender,\r\n            \"You are not the owner of this cat\"\r\n        );\r\n        cats[_catId].isForSale = true;\r\n        cats[_catId].price = _price;\r\n        emit CatListedForSale(_catId, _price);\r\n    }\r\n\r\n    function delist(uint256 _catId) public {\r\n        require(\r\n            catToOwner[_catId] == msg.sender,\r\n            \"You are not the owner of this cat\"\r\n        );\r\n        cats[_catId].isForSale = false;\r\n        emit CatDelisted(_catId);\r\n    }\r\n\r\n    function buyCat(uint256 _catId) public payable {\r\n        require(cats[_catId].isForSale, \"This cat is not for sale\");\r\n        require(msg.value >= cats[_catId].price, \"Insufficient funds\");\r\n\r\n        address previousOwner = catToOwner[_catId];\r\n\r\n        require(previousOwner != msg.sender, \"You already own this cat\");\r\n\r\n        catToOwner[_catId] = msg.sender;\r\n        cats[_catId].isForSale = false;\r\n        cats[_catId].owner = msg.sender;\r\n\r\n        ownerHasCat[previousOwner][_catId] = false;\r\n        ownerHasCat[msg.sender][_catId] = true;\r\n\r\n        (bool success, ) = payable(previousOwner).call{value: msg.value}(\"\");\r\n        require(success, \"Transfer failed\");\r\n\r\n        emit CatSold(_catId, msg.sender, msg.value);\r\n    }\r\n\r\n    function getMarketplaceCats(\r\n        address _user\r\n    ) public view returns (uint256[] memory) {\r\n        uint256 totalCats = cats.length;\r\n        uint256 count = 0;\r\n\r\n        for (uint256 i = 0; i < totalCats; i++) {\r\n            if (_user == address(0) && cats[i].isForSale) {\r\n                count++;\r\n            } else if (cats[i].isForSale && catToOwner[i] != _user) {\r\n                count++;\r\n            }\r\n        }\r\n\r\n        uint256[] memory marketplaceCats = new uint256[](count);\r\n        uint256 index = 0;\r\n        for (uint256 i = 0; i < totalCats; i++) {\r\n            if (_user == address(0) && cats[i].isForSale) {\r\n                marketplaceCats[index] = i;\r\n                index++;\r\n            } else if (cats[i].isForSale && catToOwner[i] != _user) {\r\n                marketplaceCats[index] = i;\r\n                index++;\r\n            }\r\n        }\r\n\r\n        return marketplaceCats;\r\n    }\r\n\r\n    function getCatsByOwner(\r\n        address _owner\r\n    ) public view returns (uint256[] memory) {\r\n        uint256 totalCats = cats.length;\r\n        uint256 count = 0;\r\n\r\n        for (uint256 i = 0; i < totalCats; i++) {\r\n            if (ownerHasCat[_owner][i]) {\r\n                count++;\r\n            }\r\n        }\r\n\r\n        uint256[] memory ownerCats = new uint256[](count);\r\n        uint256 index = 0;\r\n        for (uint256 i = 0; i < totalCats; i++) {\r\n            if (ownerHasCat[_owner][i]) {\r\n                ownerCats[index] = i;\r\n                index++;\r\n            }\r\n        }\r\n\r\n        return ownerCats;\r\n    }\r\n\r\n    function burnCat(uint256 _catId) public {\r\n        require(catToOwner[_catId] == msg.sender, \"You are not the owner\");\r\n\r\n        //   mapping\r\n        ownerHasCat[msg.sender][_catId] = false;\r\n        delete catToOwner[_catId];\r\n        delete cats[_catId];\r\n\r\n        emit CatBurned(_catId);\r\n    }\r\n}\r\n",
    "sourcePath": "D:\\Programs\\Visual Studio Code Projects\\Cat-NFT\\Blockchain\\contracts\\CatNFT.sol",
    "compiler": {
        "name": "solc",
        "version": "0.8.13+commit.abaa5c0e.Emscripten.clang"
    },
    "schemaVersion": "3.4.16",
    "updatedAt": "2025-03-17T15:10:27.739Z",
    "networkType": "ethereum",
    "devdoc": {
        "kind": "dev",
        "methods": {},
        "version": 1
    },
    "userdoc": {
        "kind": "user",
        "methods": {},
        "version": 1
    }
}