{
  "contractName": "CatNFT",
  "abi": [
    {
      "inputs": [],
      "stateMutability": "nonpayable",
      "type": "constructor"
    },
    {
      "anonymous": false,
      "inputs": [
        {
          "indexed": false,
          "internalType": "uint256",
          "name": "catId",
          "type": "uint256"
        }
      ],
      "name": "CatBurned",
      "type": "event"
    },
    {
      "anonymous": false,
      "inputs": [
        {
          "indexed": false,
          "internalType": "uint256",
          "name": "catId",
          "type": "uint256"
        },
        {
          "indexed": false,
          "internalType": "string",
          "name": "imageUrl",
          "type": "string"
        },
        {
          "indexed": false,
          "internalType": "string",
          "name": "name",
          "type": "string"
        },
        {
          "indexed": false,
          "internalType": "uint8",
          "name": "quality",
          "type": "uint8"
        },
        {
          "indexed": false,
          "internalType": "address",
          "name": "owner",
          "type": "address"
        },
        {
          "indexed": false,
          "internalType": "uint256",
          "name": "creationTime",
          "type": "uint256"
        }
      ],
      "name": "CatCreated",
      "type": "event"
    },
    {
      "anonymous": false,
      "inputs": [
        {
          "indexed": false,
          "internalType": "uint256",
          "name": "catId",
          "type": "uint256"
        }
      ],
      "name": "CatDelisted",
      "type": "event"
    },
    {
      "anonymous": false,
      "inputs": [
        {
          "indexed": false,
          "internalType": "uint256",
          "name": "catId",
          "type": "uint256"
        },
        {
          "indexed": false,
          "internalType": "uint256",
          "name": "price",
          "type": "uint256"
        }
      ],
      "name": "CatListedForSale",
      "type": "event"
    },
    {
      "anonymous": false,
      "inputs": [
        {
          "indexed": false,
          "internalType": "uint256",
          "name": "catId",
          "type": "uint256"
        },
        {
          "indexed": false,
          "internalType": "uint256",
          "name": "newPrice",
          "type": "uint256"
        }
      ],
      "name": "CatPriceUpdated",
      "type": "event"
    },
    {
      "anonymous": false,
      "inputs": [
        {
          "indexed": false,
          "internalType": "uint256",
          "name": "catId",
          "type": "uint256"
        },
        {
          "indexed": false,
          "internalType": "address",
          "name": "buyer",
          "type": "address"
        },
        {
          "indexed": false,
          "internalType": "uint256",
          "name": "price",
          "type": "uint256"
        }
      ],
      "name": "CatSold",
      "type": "event"
    },
    {
      "inputs": [],
      "name": "MINT_PRICE",
      "outputs": [
        {
          "internalType": "uint256",
          "name": "",
          "type": "uint256"
        }
      ],
      "stateMutability": "view",
      "type": "function",
      "constant": true
    },
    {
      "inputs": [
        {
          "internalType": "uint256",
          "name": "",
          "type": "uint256"
        }
      ],
      "name": "catToOwner",
      "outputs": [
        {
          "internalType": "address",
          "name": "",
          "type": "address"
        }
      ],
      "stateMutability": "view",
      "type": "function",
      "constant": true
    },
    {
      "inputs": [
        {
          "internalType": "uint256",
          "name": "",
          "type": "uint256"
        }
      ],
      "name": "cats",
      "outputs": [
        {
          "internalType": "string",
          "name": "imageUrl",
          "type": "string"
        },
        {
          "internalType": "string",
          "name": "name",
          "type": "string"
        },
        {
          "internalType": "uint8",
          "name": "quality",
          "type": "uint8"
        },
        {
          "internalType": "uint256",
          "name": "price",
          "type": "uint256"
        },
        {
          "internalType": "bool",
          "name": "isForSale",
          "type": "bool"
        },
        {
          "internalType": "address",
          "name": "owner",
          "type": "address"
        },
        {
          "internalType": "uint256",
          "name": "creationTime",
          "type": "uint256"
        }
      ],
      "stateMutability": "view",
      "type": "function",
      "constant": true
    },
    {
      "inputs": [],
      "name": "owner",
      "outputs": [
        {
          "internalType": "address payable",
          "name": "",
          "type": "address"
        }
      ],
      "stateMutability": "view",
      "type": "function",
      "constant": true
    },
    {
      "inputs": [
        {
          "internalType": "address",
          "name": "",
          "type": "address"
        },
        {
          "internalType": "uint256",
          "name": "",
          "type": "uint256"
        }
      ],
      "name": "ownerToCats",
      "outputs": [
        {
          "internalType": "uint256",
          "name": "",
          "type": "uint256"
        }
      ],
      "stateMutability": "view",
      "type": "function",
      "constant": true
    },
    {
      "inputs": [
        {
          "internalType": "string",
          "name": "_imageUrl",
          "type": "string"
        },
        {
          "internalType": "string",
          "name": "_name",
          "type": "string"
        }
      ],
      "name": "createCat",
      "outputs": [],
      "stateMutability": "nonpayable",
      "type": "function"
    },
    {
      "inputs": [],
      "name": "withdrawFunds",
      "outputs": [],
      "stateMutability": "nonpayable",
      "type": "function"
    },
    {
      "inputs": [
        {
          "internalType": "uint256",
          "name": "_catId",
          "type": "uint256"
        },
        {
          "internalType": "uint256",
          "name": "_newPrice",
          "type": "uint256"
        }
      ],
      "name": "updatePrice",
      "outputs": [],
      "stateMutability": "nonpayable",
      "type": "function"
    },
    {
      "inputs": [
        {
          "internalType": "uint256",
          "name": "_catId",
          "type": "uint256"
        },
        {
          "internalType": "uint256",
          "name": "_price",
          "type": "uint256"
        }
      ],
      "name": "listForSale",
      "outputs": [],
      "stateMutability": "nonpayable",
      "type": "function"
    },
    {
      "inputs": [
        {
          "internalType": "uint256",
          "name": "_catId",
          "type": "uint256"
        }
      ],
      "name": "delist",
      "outputs": [],
      "stateMutability": "nonpayable",
      "type": "function"
    },
    {
      "inputs": [
        {
          "internalType": "uint256",
          "name": "_catId",
          "type": "uint256"
        }
      ],
      "name": "buyCat",
      "outputs": [],
      "stateMutability": "payable",
      "type": "function",
      "payable": true
    },
    {
      "inputs": [
        {
          "internalType": "address",
          "name": "_user",
          "type": "address"
        }
      ],
      "name": "getMarketplaceCats",
      "outputs": [
        {
          "internalType": "uint256[]",
          "name": "",
          "type": "uint256[]"
        }
      ],
      "stateMutability": "view",
      "type": "function",
      "constant": true
    },
    {
      "inputs": [
        {
          "internalType": "address",
          "name": "_owner",
          "type": "address"
        }
      ],
      "name": "getCatsByOwner",
      "outputs": [
        {
          "internalType": "uint256[]",
          "name": "",
          "type": "uint256[]"
        }
      ],
      "stateMutability": "view",
      "type": "function",
      "constant": true
    },
    {
      "inputs": [
        {
          "internalType": "uint256",
          "name": "_catId",
          "type": "uint256"
        }
      ],
      "name": "burnCat",
      "outputs": [],
      "stateMutability": "nonpayable",
      "type": "function"
    }
  ],
  "bytecode": "0x608060405234801561001057600080fd5b5033600360006101000a81548173ffffffffffffffffffffffffffffffffffffffff021916908373ffffffffffffffffffffffffffffffffffffffff1602179055506124c7806100616000396000f3fe6080604052600436106100dd5760003560e01c8063964bc33f1161007f578063c1bab34211610059578063c1bab342146102aa578063c6df962d146102e7578063d72503ba1461032a578063e80d7fec14610346576100dd565b8063964bc33f1461022d578063a8f2aa5414610256578063c002d23d1461027f576100dd565b806348444b94116100bb57806348444b941461017357806361cd194e146101b057806382367b2d146101d95780638da5cb5b14610202576100dd565b8063075291a3146100e257806324600fc31461011f5780633aab8dc814610136575b600080fd5b3480156100ee57600080fd5b506101096004803603810190610104919061193b565b61036f565b604051610116919061198a565b60405180910390f35b34801561012b57600080fd5b506101346103a0565b005b34801561014257600080fd5b5061015d600480360381019061015891906119a5565b61049b565b60405161016a91906119e1565b60405180910390f35b34801561017f57600080fd5b5061019a600480360381019061019591906119fc565b6104ce565b6040516101a79190611ae7565b60405180910390f35b3480156101bc57600080fd5b506101d760048036038101906101d291906119a5565b61077d565b005b3480156101e557600080fd5b5061020060048036038101906101fb9190611b09565b610aef565b005b34801561020e57600080fd5b50610217610bf7565b6040516102249190611b6a565b60405180910390f35b34801561023957600080fd5b50610254600480360381019061024f91906119a5565b610c1d565b005b34801561026257600080fd5b5061027d60048036038101906102789190611ccb565b610d35565b005b34801561028b57600080fd5b50610294611035565b6040516102a1919061198a565b60405180910390f35b3480156102b657600080fd5b506102d160048036038101906102cc91906119fc565b611040565b6040516102de9190611ae7565b60405180910390f35b3480156102f357600080fd5b5061030e600480360381019061030991906119a5565b6110d7565b6040516103219796959493929190611e02565b60405180910390f35b610344600480360381019061033f91906119a5565b611273565b005b34801561035257600080fd5b5061036d60048036038101906103689190611b09565b61166a565b005b6002602052816000526040600020818154811061038b57600080fd5b90600052602060002001600091509150505481565b600360009054906101000a900473ffffffffffffffffffffffffffffffffffffffff1673ffffffffffffffffffffffffffffffffffffffff163373ffffffffffffffffffffffffffffffffffffffff1614610430576040517f08c379a000000000000000000000000000000000000000000000000000000000815260040161042790611ecb565b60405180910390fd5b600360009054906101000a900473ffffffffffffffffffffffffffffffffffffffff1673ffffffffffffffffffffffffffffffffffffffff166108fc479081150290604051600060405180830381858888f19350505050158015610498573d6000803e3d6000fd5b50565b60016020528060005260406000206000915054906101000a900473ffffffffffffffffffffffffffffffffffffffff1681565b606060008080549050905060008167ffffffffffffffff8111156104f5576104f4611ba0565b5b6040519080825280602002602001820160405280156105235781602001602082028036833780820191505090505b5090506000805b838110156106ca57600073ffffffffffffffffffffffffffffffffffffffff168673ffffffffffffffffffffffffffffffffffffffff16036105d2576000818154811061057a57610579611eeb565b5b906000526020600020906006020160040160009054906101000a900460ff16156105cd57808383815181106105b2576105b1611eeb565b5b60200260200101818152505081806105c990611f49565b9250505b6106b7565b600081815481106105e6576105e5611eeb565b5b906000526020600020906006020160040160009054906101000a900460ff16801561068257508573ffffffffffffffffffffffffffffffffffffffff166000828154811061063757610636611eeb565b5b906000526020600020906006020160040160019054906101000a900473ffffffffffffffffffffffffffffffffffffffff1673ffffffffffffffffffffffffffffffffffffffff1614155b156106b6578083838151811061069b5761069a611eeb565b5b60200260200101818152505081806106b290611f49565b9250505b5b80806106c290611f49565b91505061052a565b5060008167ffffffffffffffff8111156106e7576106e6611ba0565b5b6040519080825280602002602001820160405280156107155781602001602082028036833780820191505090505b50905060005b828110156107705783818151811061073657610735611eeb565b5b602002602001015182828151811061075157610750611eeb565b5b602002602001018181525050808061076890611f49565b91505061071b565b5080945050505050919050565b3373ffffffffffffffffffffffffffffffffffffffff166001600083815260200190815260200160002060009054906101000a900473ffffffffffffffffffffffffffffffffffffffff1673ffffffffffffffffffffffffffffffffffffffff161461081e576040517f08c379a000000000000000000000000000000000000000000000000000000000815260040161081590612003565b60405180910390fd5b60006001600083815260200190815260200160002060009054906101000a900473ffffffffffffffffffffffffffffffffffffffff1690506000600260008373ffffffffffffffffffffffffffffffffffffffff1673ffffffffffffffffffffffffffffffffffffffff16815260200190815260200160002090506000806000905060005b83805490508110156108f257858482815481106108c3576108c2611eeb565b5b9060005260206000200154036108df57809250600191506108f2565b80806108ea90611f49565b9150506108a3565b5080610933576040517f08c379a000000000000000000000000000000000000000000000000000000000815260040161092a9061206f565b60405180910390fd5b60008290505b6001848054905061094a919061208f565b8110156109af578360018261095f91906120c3565b815481106109705761096f611eeb565b5b906000526020600020015484828154811061098e5761098d611eeb565b5b906000526020600020018190555080806109a790611f49565b915050610939565b50828054806109c1576109c0612119565b5b60019003818190600052602060002001600090559055600085815481106109eb576109ea611eeb565b5b906000526020600020906006020160008082016000610a0a91906117b0565b600182016000610a1a91906117b0565b6002820160006101000a81549060ff021916905560038201600090556004820160006101000a81549060ff02191690556004820160016101000a81549073ffffffffffffffffffffffffffffffffffffffff0219169055600582016000905550506001600086815260200190815260200160002060006101000a81549073ffffffffffffffffffffffffffffffffffffffff02191690557ff3bd11d0ae4bfb152706a9e6b67395121b2be21b6e484efb902e66576bdf71d385604051610ae0919061198a565b60405180910390a15050505050565b3373ffffffffffffffffffffffffffffffffffffffff166001600084815260200190815260200160002060009054906101000a900473ffffffffffffffffffffffffffffffffffffffff1673ffffffffffffffffffffffffffffffffffffffff1614610b90576040517f08c379a0000000000000000000000000000000000000000000000000000000008152600401610b8790612003565b60405180910390fd5b8060008381548110610ba557610ba4611eeb565b5b9060005260206000209060060201600301819055507fa7ea7f57c5eafcec89eec0211778ca9f66205de223b4f0d8ff5aaab427a1e72a8282604051610beb929190612148565b60405180910390a15050565b600360009054906101000a900473ffffffffffffffffffffffffffffffffffffffff1681565b3373ffffffffffffffffffffffffffffffffffffffff166001600083815260200190815260200160002060009054906101000a900473ffffffffffffffffffffffffffffffffffffffff1673ffffffffffffffffffffffffffffffffffffffff1614610cbe576040517f08c379a0000000000000000000000000000000000000000000000000000000008152600401610cb590612003565b60405180910390fd5b6000808281548110610cd357610cd2611eeb565b5b906000526020600020906006020160040160006101000a81548160ff0219169083151502179055507f8803065e2a4d7d74525af34c061c56eddf24f7b32ac1f9b7de88c78dbc252f6881604051610d2a919061198a565b60405180910390a150565b6000606442600143610d47919061208f565b4033600080549050604051602001610d629493929190612205565b6040516020818303038152906040528051906020012060001c610d859190612282565b905060006023821015610d9b5760019050610dd9565b603c821015610dad5760029050610dd8565b6050821015610dbf5760039050610dd7565b605d821015610dd15760049050610dd6565b600590505b5b5b5b60008080549050905060006040518060e001604052808781526020018681526020018460ff168152602001600081526020016000151581526020013373ffffffffffffffffffffffffffffffffffffffff1681526020014281525090806001815401808255809150506001900390600052602060002090600602016000909190919091506000820151816000019080519060200190610e799291906117f0565b506020820151816001019080519060200190610e969291906117f0565b5060408201518160020160006101000a81548160ff021916908360ff1602179055506060820151816003015560808201518160040160006101000a81548160ff02191690831515021790555060a08201518160040160016101000a81548173ffffffffffffffffffffffffffffffffffffffff021916908373ffffffffffffffffffffffffffffffffffffffff16021790555060c082015181600501555050336001600083815260200190815260200160002060006101000a81548173ffffffffffffffffffffffffffffffffffffffff021916908373ffffffffffffffffffffffffffffffffffffffff160217905550600260003373ffffffffffffffffffffffffffffffffffffffff1673ffffffffffffffffffffffffffffffffffffffff1681526020019081526020016000208190806001815401808255809150506001900390600052602060002001600090919091909150557f899c210768c32d75093c3c4a91876022dbd62e165d1c820a1feabb96dd140107818686853342604051611026969594939291906122b3565b60405180910390a15050505050565b6608e1bc9bf0400081565b6060600260008373ffffffffffffffffffffffffffffffffffffffff1673ffffffffffffffffffffffffffffffffffffffff1681526020019081526020016000208054806020026020016040519081016040528092919081815260200182805480156110cb57602002820191906000526020600020905b8154815260200190600101908083116110b7575b50505050509050919050565b600081815481106110e757600080fd5b906000526020600020906006020160009150905080600001805461110a90612351565b80601f016020809104026020016040519081016040528092919081815260200182805461113690612351565b80156111835780601f1061115857610100808354040283529160200191611183565b820191906000526020600020905b81548152906001019060200180831161116657829003601f168201915b50505050509080600101805461119890612351565b80601f01602080910402602001604051908101604052809291908181526020018280546111c490612351565b80156112115780601f106111e657610100808354040283529160200191611211565b820191906000526020600020905b8154815290600101906020018083116111f457829003601f168201915b5050505050908060020160009054906101000a900460ff16908060030154908060040160009054906101000a900460ff16908060040160019054906101000a900473ffffffffffffffffffffffffffffffffffffffff16908060050154905087565b6000818154811061128757611286611eeb565b5b906000526020600020906006020160040160009054906101000a900460ff166112e5576040517f08c379a00000000000000000000000000000000000000000000000000000000081526004016112dc906123ce565b60405180910390fd5b600081815481106112f9576112f8611eeb565b5b90600052602060002090600602016003015434101561134d576040517f08c379a00000000000000000000000000000000000000000000000000000000081526004016113449061243a565b60405180910390fd5b60006001600083815260200190815260200160002060009054906101000a900473ffffffffffffffffffffffffffffffffffffffff169050336001600084815260200190815260200160002060006101000a81548173ffffffffffffffffffffffffffffffffffffffff021916908373ffffffffffffffffffffffffffffffffffffffff16021790555060008083815481106113ec576113eb611eeb565b5b906000526020600020906006020160040160006101000a81548160ff021916908315150217905550336000838154811061142957611428611eeb565b5b906000526020600020906006020160040160016101000a81548173ffffffffffffffffffffffffffffffffffffffff021916908373ffffffffffffffffffffffffffffffffffffffff1602179055506000600260008373ffffffffffffffffffffffffffffffffffffffff1673ffffffffffffffffffffffffffffffffffffffff168152602001908152602001600020905060005b818054905081101561157c57838282815481106114de576114dd611eeb565b5b906000526020600020015403611569578160018380549050611500919061208f565b8154811061151157611510611eeb565b5b906000526020600020015482828154811061152f5761152e611eeb565b5b90600052602060002001819055508180548061154e5761154d612119565b5b6001900381819060005260206000200160009055905561157c565b808061157490611f49565b9150506114be565b50600260003373ffffffffffffffffffffffffffffffffffffffff1673ffffffffffffffffffffffffffffffffffffffff1681526020019081526020016000208390806001815401808255809150506001900390600052602060002001600090919091909150558173ffffffffffffffffffffffffffffffffffffffff166108fc349081150290604051600060405180830381858888f19350505050158015611629573d6000803e3d6000fd5b507f24b8d548cd229648e4ca8febdd99cc0acbff8bb2a46cd31049a9a6e61a46dd7283333460405161165d9392919061245a565b60405180910390a1505050565b3373ffffffffffffffffffffffffffffffffffffffff166001600084815260200190815260200160002060009054906101000a900473ffffffffffffffffffffffffffffffffffffffff1673ffffffffffffffffffffffffffffffffffffffff161461170b576040517f08c379a000000000000000000000000000000000000000000000000000000000815260040161170290612003565b60405180910390fd5b60016000838154811061172157611720611eeb565b5b906000526020600020906006020160040160006101000a81548160ff021916908315150217905550806000838154811061175e5761175d611eeb565b5b9060005260206000209060060201600301819055507fe44f7089cc22f65881086ffcca2cb2c1b8382f225b382bd3e8ab12ce0561b50882826040516117a4929190612148565b60405180910390a15050565b5080546117bc90612351565b6000825580601f106117ce57506117ed565b601f0160209004906000526020600020908101906117ec9190611876565b5b50565b8280546117fc90612351565b90600052602060002090601f01602090048101928261181e5760008555611865565b82601f1061183757805160ff1916838001178555611865565b82800160010185558215611865579182015b82811115611864578251825591602001919060010190611849565b5b5090506118729190611876565b5090565b5b8082111561188f576000816000905550600101611877565b5090565b6000604051905090565b600080fd5b600080fd5b600073ffffffffffffffffffffffffffffffffffffffff82169050919050565b60006118d2826118a7565b9050919050565b6118e2816118c7565b81146118ed57600080fd5b50565b6000813590506118ff816118d9565b92915050565b6000819050919050565b61191881611905565b811461192357600080fd5b50565b6000813590506119358161190f565b92915050565b600080604083850312156119525761195161189d565b5b6000611960858286016118f0565b925050602061197185828601611926565b9150509250929050565b61198481611905565b82525050565b600060208201905061199f600083018461197b565b92915050565b6000602082840312156119bb576119ba61189d565b5b60006119c984828501611926565b91505092915050565b6119db816118c7565b82525050565b60006020820190506119f660008301846119d2565b92915050565b600060208284031215611a1257611a1161189d565b5b6000611a20848285016118f0565b91505092915050565b600081519050919050565b600082825260208201905092915050565b6000819050602082019050919050565b611a5e81611905565b82525050565b6000611a708383611a55565b60208301905092915050565b6000602082019050919050565b6000611a9482611a29565b611a9e8185611a34565b9350611aa983611a45565b8060005b83811015611ada578151611ac18882611a64565b9750611acc83611a7c565b925050600181019050611aad565b5085935050505092915050565b60006020820190508181036000830152611b018184611a89565b905092915050565b60008060408385031215611b2057611b1f61189d565b5b6000611b2e85828601611926565b9250506020611b3f85828601611926565b9150509250929050565b6000611b54826118a7565b9050919050565b611b6481611b49565b82525050565b6000602082019050611b7f6000830184611b5b565b92915050565b600080fd5b600080fd5b6000601f19601f8301169050919050565b7f4e487b7100000000000000000000000000000000000000000000000000000000600052604160045260246000fd5b611bd882611b8f565b810181811067ffffffffffffffff82111715611bf757611bf6611ba0565b5b80604052505050565b6000611c0a611893565b9050611c168282611bcf565b919050565b600067ffffffffffffffff821115611c3657611c35611ba0565b5b611c3f82611b8f565b9050602081019050919050565b82818337600083830152505050565b6000611c6e611c6984611c1b565b611c00565b905082815260208101848484011115611c8a57611c89611b8a565b5b611c95848285611c4c565b509392505050565b600082601f830112611cb257611cb1611b85565b5b8135611cc2848260208601611c5b565b91505092915050565b60008060408385031215611ce257611ce161189d565b5b600083013567ffffffffffffffff811115611d0057611cff6118a2565b5b611d0c85828601611c9d565b925050602083013567ffffffffffffffff811115611d2d57611d2c6118a2565b5b611d3985828601611c9d565b9150509250929050565b600081519050919050565b600082825260208201905092915050565b60005b83811015611d7d578082015181840152602081019050611d62565b83811115611d8c576000848401525b50505050565b6000611d9d82611d43565b611da78185611d4e565b9350611db7818560208601611d5f565b611dc081611b8f565b840191505092915050565b600060ff82169050919050565b611de181611dcb565b82525050565b60008115159050919050565b611dfc81611de7565b82525050565b600060e0820190508181036000830152611e1c818a611d92565b90508181036020830152611e308189611d92565b9050611e3f6040830188611dd8565b611e4c606083018761197b565b611e596080830186611df3565b611e6660a08301856119d2565b611e7360c083018461197b565b98975050505050505050565b7f4f6e6c79206f776e65722063616e2077697468647261772066756e6473000000600082015250565b6000611eb5601d83611d4e565b9150611ec082611e7f565b602082019050919050565b60006020820190508181036000830152611ee481611ea8565b9050919050565b7f4e487b7100000000000000000000000000000000000000000000000000000000600052603260045260246000fd5b7f4e487b7100000000000000000000000000000000000000000000000000000000600052601160045260246000fd5b6000611f5482611905565b91507fffffffffffffffffffffffffffffffffffffffffffffffffffffffffffffffff8203611f8657611f85611f1a565b5b600182019050919050565b7f596f7520617265206e6f7420746865206f776e6572206f66207468697320636160008201527f7400000000000000000000000000000000000000000000000000000000000000602082015250565b6000611fed602183611d4e565b9150611ff882611f91565b604082019050919050565b6000602082019050818103600083015261201c81611fe0565b9050919050565b7f436174206e6f7420666f756e6400000000000000000000000000000000000000600082015250565b6000612059600d83611d4e565b915061206482612023565b602082019050919050565b600060208201905081810360008301526120888161204c565b9050919050565b600061209a82611905565b91506120a583611905565b9250828210156120b8576120b7611f1a565b5b828203905092915050565b60006120ce82611905565b91506120d983611905565b9250827fffffffffffffffffffffffffffffffffffffffffffffffffffffffffffffffff0382111561210e5761210d611f1a565b5b828201905092915050565b7f4e487b7100000000000000000000000000000000000000000000000000000000600052603160045260246000fd5b600060408201905061215d600083018561197b565b61216a602083018461197b565b9392505050565b6000819050919050565b61218c61218782611905565b612171565b82525050565b6000819050919050565b6000819050919050565b6121b76121b282612192565b61219c565b82525050565b60008160601b9050919050565b60006121d5826121bd565b9050919050565b60006121e7826121ca565b9050919050565b6121ff6121fa826118c7565b6121dc565b82525050565b6000612211828761217b565b60208201915061222182866121a6565b60208201915061223182856121ee565b601482019150612241828461217b565b60208201915081905095945050505050565b7f4e487b7100000000000000000000000000000000000000000000000000000000600052601260045260246000fd5b600061228d82611905565b915061229883611905565b9250826122a8576122a7612253565b5b828206905092915050565b600060c0820190506122c8600083018961197b565b81810360208301526122da8188611d92565b905081810360408301526122ee8187611d92565b90506122fd6060830186611dd8565b61230a60808301856119d2565b61231760a083018461197b565b979650505050505050565b7f4e487b7100000000000000000000000000000000000000000000000000000000600052602260045260246000fd5b6000600282049050600182168061236957607f821691505b60208210810361237c5761237b612322565b5b50919050565b7f5468697320636174206973206e6f7420666f722073616c650000000000000000600082015250565b60006123b8601883611d4e565b91506123c382612382565b602082019050919050565b600060208201905081810360008301526123e7816123ab565b9050919050565b7f496e73756666696369656e742066756e64730000000000000000000000000000600082015250565b6000612424601283611d4e565b915061242f826123ee565b602082019050919050565b6000602082019050818103600083015261245381612417565b9050919050565b600060608201905061246f600083018661197b565b61247c60208301856119d2565b612489604083018461197b565b94935050505056fea264697066735822122036ad0ca567ce264b9edec8d0a194593d306fff2394ba054ead13406789cfa4bc64736f6c634300080d0033",
  "immutableReferences": {},
  "source": "// SPDX-License-Identifier: MIT\r\npragma solidity ^0.8.13;\r\n\r\ncontract CatNFT {\r\n    struct Cat {\r\n        string imageUrl;\r\n        string name;\r\n        uint8 quality;\r\n        uint256 price;\r\n        bool isForSale;\r\n        address owner;\r\n        uint256 creationTime;\r\n    }\r\n\r\n    Cat[] public cats;\r\n    mapping(uint256 => address) public catToOwner;\r\n    mapping(address => uint256[]) public ownerToCats;\r\n\r\n    address payable public owner;\r\n    uint256 public constant MINT_PRICE = 0.0025 ether;\r\n\r\n    event CatCreated(\r\n        uint256 catId,\r\n        string imageUrl,\r\n        string name,\r\n        uint8 quality,\r\n        address owner,\r\n        uint256 creationTime\r\n    );\r\n    event CatPriceUpdated(uint256 catId, uint256 newPrice);\r\n    event CatListedForSale(uint256 catId, uint256 price);\r\n    event CatDelisted(uint256 catId);\r\n    event CatSold(uint256 catId, address buyer, uint256 price);\r\n    event CatBurned(uint256 catId);\r\n\r\n    constructor() {\r\n        owner = payable(msg.sender);\r\n    }\r\n\r\n    function createCat(string memory _imageUrl, string memory _name) public {\r\n        uint256 randomValue = uint256(\r\n            keccak256(\r\n                abi.encodePacked(\r\n                    block.timestamp,\r\n                    blockhash(block.number - 1),\r\n                    msg.sender,\r\n                    cats.length\r\n                )\r\n            )\r\n        ) % 100;\r\n\r\n        uint8 _quality;\r\n        if (randomValue < 35) {\r\n            _quality = 1;\r\n        } else if (randomValue < 60) {\r\n            _quality = 2;\r\n        } else if (randomValue < 80) {\r\n            _quality = 3;\r\n        } else if (randomValue < 93) {\r\n            _quality = 4;\r\n        } else {\r\n            _quality = 5;\r\n        }\r\n\r\n        uint256 catId = cats.length;\r\n        cats.push(\r\n            Cat({\r\n                imageUrl: _imageUrl,\r\n                name: _name,\r\n                quality: _quality,\r\n                price: 0,\r\n                isForSale: false,\r\n                owner: msg.sender,\r\n                creationTime: block.timestamp\r\n            })\r\n        );\r\n\r\n        catToOwner[catId] = msg.sender;\r\n        ownerToCats[msg.sender].push(catId);\r\n\r\n        emit CatCreated(\r\n            catId,\r\n            _imageUrl,\r\n            _name,\r\n            _quality,\r\n            msg.sender,\r\n            block.timestamp\r\n        );\r\n    }\r\n\r\n    function withdrawFunds() public {\r\n        require(msg.sender == owner, \"Only owner can withdraw funds\");\r\n        payable(owner).transfer(address(this).balance);\r\n    }\r\n\r\n    function updatePrice(uint256 _catId, uint256 _newPrice) public {\r\n        require(\r\n            catToOwner[_catId] == msg.sender,\r\n            \"You are not the owner of this cat\"\r\n        );\r\n        cats[_catId].price = _newPrice;\r\n        emit CatPriceUpdated(_catId, _newPrice);\r\n    }\r\n\r\n    function listForSale(uint256 _catId, uint256 _price) public {\r\n        require(\r\n            catToOwner[_catId] == msg.sender,\r\n            \"You are not the owner of this cat\"\r\n        );\r\n        cats[_catId].isForSale = true;\r\n        cats[_catId].price = _price;\r\n        emit CatListedForSale(_catId, _price);\r\n    }\r\n\r\n    function delist(uint256 _catId) public {\r\n        require(\r\n            catToOwner[_catId] == msg.sender,\r\n            \"You are not the owner of this cat\"\r\n        );\r\n        cats[_catId].isForSale = false;\r\n        emit CatDelisted(_catId);\r\n    }\r\n\r\n    function buyCat(uint256 _catId) public payable {\r\n        require(cats[_catId].isForSale, \"This cat is not for sale\");\r\n        require(msg.value >= cats[_catId].price, \"Insufficient funds\");\r\n\r\n        address previousOwner = catToOwner[_catId];\r\n        catToOwner[_catId] = msg.sender;\r\n        cats[_catId].isForSale = false;\r\n        cats[_catId].owner = msg.sender;\r\n\r\n        uint256[] storage previousOwnerCats = ownerToCats[previousOwner];\r\n        for (uint256 i = 0; i < previousOwnerCats.length; i++) {\r\n            if (previousOwnerCats[i] == _catId) {\r\n                previousOwnerCats[i] = previousOwnerCats[\r\n                    previousOwnerCats.length - 1\r\n                ];\r\n                previousOwnerCats.pop();\r\n                break;\r\n            }\r\n        }\r\n\r\n        ownerToCats[msg.sender].push(_catId);\r\n\r\n        payable(previousOwner).transfer(msg.value);\r\n\r\n        emit CatSold(_catId, msg.sender, msg.value);\r\n    }\r\n\r\n    function getMarketplaceCats(\r\n        address _user\r\n    ) public view returns (uint256[] memory) {\r\n        uint256 totalCats = cats.length;\r\n        uint256[] memory tempCats = new uint256[](totalCats);\r\n        uint256 count = 0;\r\n\r\n        for (uint256 i = 0; i < totalCats; i++) {\r\n            if (_user == address(0)) {\r\n                if (cats[i].isForSale) {\r\n                    tempCats[count] = i;\r\n                    count++;\r\n                }\r\n            } else if (cats[i].isForSale && cats[i].owner != _user) {\r\n                tempCats[count] = i;\r\n                count++;\r\n            }\r\n        }\r\n\r\n        uint256[] memory marketplaceCats = new uint256[](count);\r\n        for (uint256 i = 0; i < count; i++) {\r\n            marketplaceCats[i] = tempCats[i];\r\n        }\r\n\r\n        return marketplaceCats;\r\n    }\r\n\r\n    function getCatsByOwner(\r\n        address _owner\r\n    ) public view returns (uint256[] memory) {\r\n        return ownerToCats[_owner];\r\n    }\r\n\r\n    function burnCat(uint256 _catId) public {\r\n        require(\r\n            catToOwner[_catId] == msg.sender,\r\n            \"You are not the owner of this cat\"\r\n        );\r\n\r\n        address ownerOfCat = catToOwner[_catId];\r\n\r\n        uint256[] storage ownerCats = ownerToCats[ownerOfCat];\r\n\r\n        uint256 indexToRemove;\r\n        bool found = false;\r\n        for (uint256 i = 0; i < ownerCats.length; i++) {\r\n            if (ownerCats[i] == _catId) {\r\n                indexToRemove = i;\r\n                found = true;\r\n                break;\r\n            }\r\n        }\r\n\r\n        require(found, \"Cat not found\");\r\n\r\n        for (uint256 i = indexToRemove; i < ownerCats.length - 1; i++) {\r\n            ownerCats[i] = ownerCats[i + 1];\r\n        }\r\n\r\n        ownerCats.pop();\r\n\r\n        delete cats[_catId];\r\n        delete catToOwner[_catId];\r\n\r\n        emit CatBurned(_catId);\r\n    }\r\n}\r\n",
  "sourcePath": "D:\\Programs\\Visual Studio Code Projects\\Cat-NFT\\Blockchain\\contracts\\CatNFT.sol",
  "compiler": {
    "name": "solc",
    "version": "0.8.13+commit.abaa5c0e.Emscripten.clang"
  },
  "schemaVersion": "3.4.16",
  "updatedAt": "2025-03-12T14:27:22.960Z",
  "networkType": "ethereum",
  "devdoc": {
    "kind": "dev",
    "methods": {},
    "version": 1
  },
  "userdoc": {
    "kind": "user",
    "methods": {},
    "version": 1
  }
}